{
  "contractName": "PatientContract",
  "abi": [
    {
      "inputs": [
        {
          "internalType": "uint256",
          "name": "",
          "type": "uint256"
        }
      ],
      "name": "patients",
      "outputs": [
        {
          "internalType": "string",
          "name": "firstName",
          "type": "string"
        },
        {
          "internalType": "string",
          "name": "lastName",
          "type": "string"
        }
      ],
      "stateMutability": "view",
      "type": "function"
    },
    {
      "inputs": [
        {
          "internalType": "string",
          "name": "_firstName",
          "type": "string"
        },
        {
          "internalType": "string",
          "name": "_lastName",
          "type": "string"
        }
      ],
      "name": "addPatient",
      "outputs": [],
      "stateMutability": "nonpayable",
      "type": "function"
    },
    {
      "inputs": [],
      "name": "getPatientCount",
      "outputs": [
        {
          "internalType": "uint256",
          "name": "",
          "type": "uint256"
        }
      ],
      "stateMutability": "view",
      "type": "function"
    },
    {
      "inputs": [
        {
          "internalType": "uint256",
          "name": "index",
          "type": "uint256"
        }
      ],
      "name": "getPatient",
      "outputs": [
        {
          "internalType": "string",
          "name": "",
          "type": "string"
        },
        {
          "internalType": "string",
          "name": "",
          "type": "string"
        }
      ],
      "stateMutability": "view",
      "type": "function"
    }
  ],
  "bytecode": "0x608060405234801561000f575f80fd5b50610ad08061001d5f395ff3fe608060405234801561000f575f80fd5b506004361061004a575f3560e01c8063239ee6c11461004e5780637d3a67961461006a57806393119a831461009b578063c190665b146100cc575b5f80fd5b61006860048036038101906100639190610591565b6100ea565b005b610084600480360381019061007f919061063a565b610156565b6040516100929291906106df565b60405180910390f35b6100b560048036038101906100b0919061063a565b6102ff565b6040516100c39291906106df565b60405180910390f35b6100d4610439565b6040516100e19190610723565b60405180910390f35b5f604051806040016040528084815260200183815250908060018154018082558091505060019003905f5260205f2090600202015f909190919091505f820151815f0190816101399190610936565b50602082015181600101908161014f9190610936565b5050505050565b6060805f80549050831061019f576040517f08c379a000000000000000000000000000000000000000000000000000000000815260040161019690610a4f565b60405180910390fd5b5f83815481106101b2576101b1610a6d565b5b905f5260205f2090600202015f015f84815481106101d3576101d2610a6d565b5b905f5260205f2090600202016001018180546101ee90610769565b80601f016020809104026020016040519081016040528092919081815260200182805461021a90610769565b80156102655780601f1061023c57610100808354040283529160200191610265565b820191905f5260205f20905b81548152906001019060200180831161024857829003601f168201915b5050505050915080805461027890610769565b80601f01602080910402602001604051908101604052809291908181526020018280546102a490610769565b80156102ef5780601f106102c6576101008083540402835291602001916102ef565b820191905f5260205f20905b8154815290600101906020018083116102d257829003601f168201915b5050505050905091509150915091565b5f818154811061030d575f80fd5b905f5260205f2090600202015f91509050805f01805461032c90610769565b80601f016020809104026020016040519081016040528092919081815260200182805461035890610769565b80156103a35780601f1061037a576101008083540402835291602001916103a3565b820191905f5260205f20905b81548152906001019060200180831161038657829003601f168201915b5050505050908060010180546103b890610769565b80601f01602080910402602001604051908101604052809291908181526020018280546103e490610769565b801561042f5780601f106104065761010080835404028352916020019161042f565b820191905f5260205f20905b81548152906001019060200180831161041257829003601f168201915b5050505050905082565b5f8080549050905090565b5f604051905090565b5f80fd5b5f80fd5b5f80fd5b5f80fd5b5f601f19601f8301169050919050565b7f4e487b71000000000000000000000000000000000000000000000000000000005f52604160045260245ffd5b6104a38261045d565b810181811067ffffffffffffffff821117156104c2576104c161046d565b5b80604052505050565b5f6104d4610444565b90506104e0828261049a565b919050565b5f67ffffffffffffffff8211156104ff576104fe61046d565b5b6105088261045d565b9050602081019050919050565b828183375f83830152505050565b5f610535610530846104e5565b6104cb565b90508281526020810184848401111561055157610550610459565b5b61055c848285610515565b509392505050565b5f82601f83011261057857610577610455565b5b8135610588848260208601610523565b91505092915050565b5f80604083850312156105a7576105a661044d565b5b5f83013567ffffffffffffffff8111156105c4576105c3610451565b5b6105d085828601610564565b925050602083013567ffffffffffffffff8111156105f1576105f0610451565b5b6105fd85828601610564565b9150509250929050565b5f819050919050565b61061981610607565b8114610623575f80fd5b50565b5f8135905061063481610610565b92915050565b5f6020828403121561064f5761064e61044d565b5b5f61065c84828501610626565b91505092915050565b5f81519050919050565b5f82825260208201905092915050565b5f5b8381101561069c578082015181840152602081019050610681565b5f8484015250505050565b5f6106b182610665565b6106bb818561066f565b93506106cb81856020860161067f565b6106d48161045d565b840191505092915050565b5f6040820190508181035f8301526106f781856106a7565b9050818103602083015261070b81846106a7565b90509392505050565b61071d81610607565b82525050565b5f6020820190506107365f830184610714565b92915050565b7f4e487b71000000000000000000000000000000000000000000000000000000005f52602260045260245ffd5b5f600282049050600182168061078057607f821691505b6020821081036107935761079261073c565b5b50919050565b5f819050815f5260205f209050919050565b5f6020601f8301049050919050565b5f82821b905092915050565b5f600883026107f57fffffffffffffffffffffffffffffffffffffffffffffffffffffffffffffffff826107ba565b6107ff86836107ba565b95508019841693508086168417925050509392505050565b5f819050919050565b5f61083a61083561083084610607565b610817565b610607565b9050919050565b5f819050919050565b61085383610820565b61086761085f82610841565b8484546107c6565b825550505050565b5f90565b61087b61086f565b61088681848461084a565b505050565b5b818110156108a95761089e5f82610873565b60018101905061088c565b5050565b601f8211156108ee576108bf81610799565b6108c8846107ab565b810160208510156108d7578190505b6108eb6108e3856107ab565b83018261088b565b50505b505050565b5f82821c905092915050565b5f61090e5f19846008026108f3565b1980831691505092915050565b5f61092683836108ff565b9150826002028217905092915050565b61093f82610665565b67ffffffffffffffff8111156109585761095761046d565b5b6109628254610769565b61096d8282856108ad565b5f60209050601f83116001811461099e575f841561098c578287015190505b610996858261091b565b8655506109fd565b601f1984166109ac86610799565b5f5b828110156109d3578489015182556001820191506020850194506020810190506109ae565b868310156109f057848901516109ec601f8916826108ff565b8355505b6001600288020188555050505b505050505050565b7f50617469656e7420646f6573206e6f74206578697374000000000000000000005f82015250565b5f610a3960168361066f565b9150610a4482610a05565b602082019050919050565b5f6020820190508181035f830152610a6681610a2d565b9050919050565b7f4e487b71000000000000000000000000000000000000000000000000000000005f52603260045260245ffdfea26469706673582212204b77feb50569ecc47bbb716b3738c7a992ac7a8ed0bb63729943f77b0401216f64736f6c63430008150033",
  "immutableReferences": {},
  "source": "// contracts/PatientContract.sol\r\n// SPDX-License-Identifier: MIT\r\npragma solidity ^0.8.0;\r\n\r\ncontract PatientContract {\r\n    struct Patient {\r\n        string firstName;\r\n        string lastName;\r\n    }\r\n    Patient[] public patients;\r\n\r\n    function addPatient(string memory _firstName, string memory _lastName) public {\r\n        patients.push(Patient(_firstName, _lastName));\r\n    }\r\n\r\n    function getPatientCount() public view returns (uint) {\r\n        return patients.length;\r\n    }\r\n\r\n    function getPatient(uint index) public view returns (string memory, string memory) {\r\n        require(index < patients.length, \"Patient does not exist\");\r\n        return (patients[index].firstName, patients[index].lastName);\r\n    }\r\n}\r\n",
  "sourcePath": "C:\\xampp\\htdocs\\ezz\\contracts\\PatientContract.sol",
  "compiler": {
    "name": "solc",
    "version": "0.8.21+commit.d9974bed.Emscripten.clang"
  },
  "schemaVersion": "3.4.16",
  "updatedAt": "2024-03-05T19:18:51.735Z",
  "devdoc": {
    "kind": "dev",
    "methods": {},
    "version": 1
  },
  "userdoc": {
    "kind": "user",
    "methods": {},
    "version": 1
  }
}